{"contracts/AdBid.sol":{"AdBid":{"abi":[{"inputs":[],"stateMutability":"nonpayable","type":"constructor"},{"inputs":[],"name":"bid","outputs":[],"stateMutability":"payable","type":"function"},{"inputs":[],"name":"getCid","outputs":[{"internalType":"string","name":"","type":"string"}],"stateMutability":"view","type":"function"},{"inputs":[],"name":"owner","outputs":[{"internalType":"address","name":"","type":"address"}],"stateMutability":"view","type":"function"},{"inputs":[],"name":"price","outputs":[{"internalType":"uint256","name":"","type":"uint256"}],"stateMutability":"view","type":"function"},{"inputs":[{"internalType":"string","name":"_newcid","type":"string"}],"name":"setCid","outputs":[],"stateMutability":"nonpayable","type":"function"},{"inputs":[],"name":"tempOwner","outputs":[{"internalType":"address","name":"","type":"address"}],"stateMutability":"view","type":"function"}],"evm":{"bytecode":{"linkReferences":{},"object":"6080604052604051806020016040528060008152506003908162000024919062000367565b503480156200003257600080fd5b50336000806101000a81548173ffffffffffffffffffffffffffffffffffffffff021916908373ffffffffffffffffffffffffffffffffffffffff16021790555033600260006101000a81548173ffffffffffffffffffffffffffffffffffffffff021916908373ffffffffffffffffffffffffffffffffffffffff1602179055506040518060600160405280602e815260200162000d9c602e913960039081620000de919062000367565b5060646001819055506200044e565b600081519050919050565b7f4e487b7100000000000000000000000000000000000000000000000000000000600052604160045260246000fd5b7f4e487b7100000000000000000000000000000000000000000000000000000000600052602260045260246000fd5b600060028204905060018216806200016f57607f821691505b60208210810362000185576200018462000127565b5b50919050565b60008190508160005260206000209050919050565b60006020601f8301049050919050565b600082821b905092915050565b600060088302620001ef7fffffffffffffffffffffffffffffffffffffffffffffffffffffffffffffffff82620001b0565b620001fb8683620001b0565b95508019841693508086168417925050509392505050565b6000819050919050565b6000819050919050565b600062000248620002426200023c8462000213565b6200021d565b62000213565b9050919050565b6000819050919050565b620002648362000227565b6200027c62000273826200024f565b848454620001bd565b825550505050565b600090565b6200029362000284565b620002a081848462000259565b505050565b5b81811015620002c857620002bc60008262000289565b600181019050620002a6565b5050565b601f8211156200031757620002e1816200018b565b620002ec84620001a0565b81016020851015620002fc578190505b620003146200030b85620001a0565b830182620002a5565b50505b505050565b600082821c905092915050565b60006200033c600019846008026200031c565b1980831691505092915050565b600062000357838362000329565b9150826002028217905092915050565b6200037282620000ed565b67ffffffffffffffff8111156200038e576200038d620000f8565b5b6200039a825462000156565b620003a7828285620002cc565b600060209050601f831160018114620003df5760008415620003ca578287015190505b620003d6858262000349565b86555062000446565b601f198416620003ef866200018b565b60005b828110156200041957848901518255600182019150602085019450602081019050620003f2565b8683101562000439578489015162000435601f89168262000329565b8355505b6001600288020188555050505b505050505050565b61093e806200045e6000396000f3fe6080604052600436106100555760003560e01c80631998aeef1461005a5780638da5cb5b14610064578063a035b1fe1461008f578063a2a12bfb146100ba578063b7e03bec146100e5578063ca00c7021461010e575b600080fd5b610062610139565b005b34801561007057600080fd5b506100796101a4565b6040516100869190610334565b60405180910390f35b34801561009b57600080fd5b506100a46101c8565b6040516100b19190610368565b60405180910390f35b3480156100c657600080fd5b506100cf6101ce565b6040516100dc9190610334565b60405180910390f35b3480156100f157600080fd5b5061010c600480360381019061010791906104dd565b6101f4565b005b34801561011a57600080fd5b50610123610261565b60405161013091906105a5565b60405180910390f35b6000349050606460015461014d91906105f6565b81101561015957600080fd5b8060018190555033600260006101000a81548173ffffffffffffffffffffffffffffffffffffffff021916908373ffffffffffffffffffffffffffffffffffffffff16021790555050565b60008054906101000a900473ffffffffffffffffffffffffffffffffffffffff1681565b60015481565b600260009054906101000a900473ffffffffffffffffffffffffffffffffffffffff1681565b600260009054906101000a900473ffffffffffffffffffffffffffffffffffffffff1673ffffffffffffffffffffffffffffffffffffffff163373ffffffffffffffffffffffffffffffffffffffff161461024e57600080fd5b806003908161025d9190610836565b5050565b60606003805461027090610659565b80601f016020809104026020016040519081016040528092919081815260200182805461029c90610659565b80156102e95780601f106102be576101008083540402835291602001916102e9565b820191906000526020600020905b8154815290600101906020018083116102cc57829003601f168201915b5050505050905090565b600073ffffffffffffffffffffffffffffffffffffffff82169050919050565b600061031e826102f3565b9050919050565b61032e81610313565b82525050565b60006020820190506103496000830184610325565b92915050565b6000819050919050565b6103628161034f565b82525050565b600060208201905061037d6000830184610359565b92915050565b6000604051905090565b600080fd5b600080fd5b600080fd5b600080fd5b6000601f19601f8301169050919050565b7f4e487b7100000000000000000000000000000000000000000000000000000000600052604160045260246000fd5b6103ea826103a1565b810181811067ffffffffffffffff82111715610409576104086103b2565b5b80604052505050565b600061041c610383565b905061042882826103e1565b919050565b600067ffffffffffffffff821115610448576104476103b2565b5b610451826103a1565b9050602081019050919050565b82818337600083830152505050565b600061048061047b8461042d565b610412565b90508281526020810184848401111561049c5761049b61039c565b5b6104a784828561045e565b509392505050565b600082601f8301126104c4576104c3610397565b5b81356104d484826020860161046d565b91505092915050565b6000602082840312156104f3576104f261038d565b5b600082013567ffffffffffffffff81111561051157610510610392565b5b61051d848285016104af565b91505092915050565b600081519050919050565b600082825260208201905092915050565b60005b83811015610560578082015181840152602081019050610545565b60008484015250505050565b600061057782610526565b6105818185610531565b9350610591818560208601610542565b61059a816103a1565b840191505092915050565b600060208201905081810360008301526105bf818461056c565b905092915050565b7f4e487b7100000000000000000000000000000000000000000000000000000000600052601160045260246000fd5b60006106018261034f565b915061060c8361034f565b9250828201905080821115610624576106236105c7565b5b92915050565b7f4e487b7100000000000000000000000000000000000000000000000000000000600052602260045260246000fd5b6000600282049050600182168061067157607f821691505b6020821081036106845761068361062a565b5b50919050565b60008190508160005260206000209050919050565b60006020601f8301049050919050565b600082821b905092915050565b6000600883026106ec7fffffffffffffffffffffffffffffffffffffffffffffffffffffffffffffffff826106af565b6106f686836106af565b95508019841693508086168417925050509392505050565b6000819050919050565b600061073361072e6107298461034f565b61070e565b61034f565b9050919050565b6000819050919050565b61074d83610718565b6107616107598261073a565b8484546106bc565b825550505050565b600090565b610776610769565b610781818484610744565b505050565b5b818110156107a55761079a60008261076e565b600181019050610787565b5050565b601f8211156107ea576107bb8161068a565b6107c48461069f565b810160208510156107d3578190505b6107e76107df8561069f565b830182610786565b50505b505050565b600082821c905092915050565b600061080d600019846008026107ef565b1980831691505092915050565b600061082683836107fc565b9150826002028217905092915050565b61083f82610526565b67ffffffffffffffff811115610858576108576103b2565b5b6108628254610659565b61086d8282856107a9565b600060209050601f8311600181146108a0576000841561088e578287015190505b610898858261081a565b865550610900565b601f1984166108ae8661068a565b60005b828110156108d6578489015182556001820191506020850194506020810190506108b1565b868310156108f357848901516108ef601f8916826107fc565b8355505b6001600288020188555050505b50505050505056fea26469706673582212206c6bba18be7d1551bcdc52af1a9e25f843ba7d6c7a22766a519381f3b36ec29764736f6c63430008110033516d4e5664314573656b655848546f4c7562444e6a524c75594261475644574351333270377667503642624a4c44","opcodes":"PUSH1 0x80 PUSH1 0x40 MSTORE PUSH1 0x40 MLOAD DUP1 PUSH1 0x20 ADD PUSH1 0x40 MSTORE DUP1 PUSH1 0x0 DUP2 MSTORE POP PUSH1 0x3 SWAP1 DUP2 PUSH3 0x24 SWAP2 SWAP1 PUSH3 0x367 JUMP JUMPDEST POP CALLVALUE DUP1 ISZERO PUSH3 0x32 JUMPI PUSH1 0x0 DUP1 REVERT JUMPDEST POP CALLER PUSH1 0x0 DUP1 PUSH2 0x100 EXP DUP2 SLOAD DUP2 PUSH20 0xFFFFFFFFFFFFFFFFFFFFFFFFFFFFFFFFFFFFFFFF MUL NOT AND SWAP1 DUP4 PUSH20 0xFFFFFFFFFFFFFFFFFFFFFFFFFFFFFFFFFFFFFFFF AND MUL OR SWAP1 SSTORE POP CALLER PUSH1 0x2 PUSH1 0x0 PUSH2 0x100 EXP DUP2 SLOAD DUP2 PUSH20 0xFFFFFFFFFFFFFFFFFFFFFFFFFFFFFFFFFFFFFFFF MUL NOT AND SWAP1 DUP4 PUSH20 0xFFFFFFFFFFFFFFFFFFFFFFFFFFFFFFFFFFFFFFFF AND MUL OR SWAP1 SSTORE POP PUSH1 0x40 MLOAD DUP1 PUSH1 0x60 ADD PUSH1 0x40 MSTORE DUP1 PUSH1 0x2E DUP2 MSTORE PUSH1 0x20 ADD PUSH3 0xD9C PUSH1 0x2E SWAP2 CODECOPY PUSH1 0x3 SWAP1 DUP2 PUSH3 0xDE SWAP2 SWAP1 PUSH3 0x367 JUMP JUMPDEST POP PUSH1 0x64 PUSH1 0x1 DUP2 SWAP1 SSTORE POP PUSH3 0x44E JUMP JUMPDEST PUSH1 0x0 DUP2 MLOAD SWAP1 POP SWAP2 SWAP1 POP JUMP JUMPDEST PUSH32 0x4E487B7100000000000000000000000000000000000000000000000000000000 PUSH1 0x0 MSTORE PUSH1 0x41 PUSH1 0x4 MSTORE PUSH1 0x24 PUSH1 0x0 REVERT JUMPDEST PUSH32 0x4E487B7100000000000000000000000000000000000000000000000000000000 PUSH1 0x0 MSTORE PUSH1 0x22 PUSH1 0x4 MSTORE PUSH1 0x24 PUSH1 0x0 REVERT JUMPDEST PUSH1 0x0 PUSH1 0x2 DUP3 DIV SWAP1 POP PUSH1 0x1 DUP3 AND DUP1 PUSH3 0x16F JUMPI PUSH1 0x7F DUP3 AND SWAP2 POP JUMPDEST PUSH1 0x20 DUP3 LT DUP2 SUB PUSH3 0x185 JUMPI PUSH3 0x184 PUSH3 0x127 JUMP JUMPDEST JUMPDEST POP SWAP2 SWAP1 POP JUMP JUMPDEST PUSH1 0x0 DUP2 SWAP1 POP DUP2 PUSH1 0x0 MSTORE PUSH1 0x20 PUSH1 0x0 KECCAK256 SWAP1 POP SWAP2 SWAP1 POP JUMP JUMPDEST PUSH1 0x0 PUSH1 0x20 PUSH1 0x1F DUP4 ADD DIV SWAP1 POP SWAP2 SWAP1 POP JUMP JUMPDEST PUSH1 0x0 DUP3 DUP3 SHL SWAP1 POP SWAP3 SWAP2 POP POP JUMP JUMPDEST PUSH1 0x0 PUSH1 0x8 DUP4 MUL PUSH3 0x1EF PUSH32 0xFFFFFFFFFFFFFFFFFFFFFFFFFFFFFFFFFFFFFFFFFFFFFFFFFFFFFFFFFFFFFFFF DUP3 PUSH3 0x1B0 JUMP JUMPDEST PUSH3 0x1FB DUP7 DUP4 PUSH3 0x1B0 JUMP JUMPDEST SWAP6 POP DUP1 NOT DUP5 AND SWAP4 POP DUP1 DUP7 AND DUP5 OR SWAP3 POP POP POP SWAP4 SWAP3 POP POP POP JUMP JUMPDEST PUSH1 0x0 DUP2 SWAP1 POP SWAP2 SWAP1 POP JUMP JUMPDEST PUSH1 0x0 DUP2 SWAP1 POP SWAP2 SWAP1 POP JUMP JUMPDEST PUSH1 0x0 PUSH3 0x248 PUSH3 0x242 PUSH3 0x23C DUP5 PUSH3 0x213 JUMP JUMPDEST PUSH3 0x21D JUMP JUMPDEST PUSH3 0x213 JUMP JUMPDEST SWAP1 POP SWAP2 SWAP1 POP JUMP JUMPDEST PUSH1 0x0 DUP2 SWAP1 POP SWAP2 SWAP1 POP JUMP JUMPDEST PUSH3 0x264 DUP4 PUSH3 0x227 JUMP JUMPDEST PUSH3 0x27C PUSH3 0x273 DUP3 PUSH3 0x24F JUMP JUMPDEST DUP5 DUP5 SLOAD PUSH3 0x1BD JUMP JUMPDEST DUP3 SSTORE POP POP POP POP JUMP JUMPDEST PUSH1 0x0 SWAP1 JUMP JUMPDEST PUSH3 0x293 PUSH3 0x284 JUMP JUMPDEST PUSH3 0x2A0 DUP2 DUP5 DUP5 PUSH3 0x259 JUMP JUMPDEST POP POP POP JUMP JUMPDEST JUMPDEST DUP2 DUP2 LT ISZERO PUSH3 0x2C8 JUMPI PUSH3 0x2BC PUSH1 0x0 DUP3 PUSH3 0x289 JUMP JUMPDEST PUSH1 0x1 DUP2 ADD SWAP1 POP PUSH3 0x2A6 JUMP JUMPDEST POP POP JUMP JUMPDEST PUSH1 0x1F DUP3 GT ISZERO PUSH3 0x317 JUMPI PUSH3 0x2E1 DUP2 PUSH3 0x18B JUMP JUMPDEST PUSH3 0x2EC DUP5 PUSH3 0x1A0 JUMP JUMPDEST DUP2 ADD PUSH1 0x20 DUP6 LT ISZERO PUSH3 0x2FC JUMPI DUP2 SWAP1 POP JUMPDEST PUSH3 0x314 PUSH3 0x30B DUP6 PUSH3 0x1A0 JUMP JUMPDEST DUP4 ADD DUP3 PUSH3 0x2A5 JUMP JUMPDEST POP POP JUMPDEST POP POP POP JUMP JUMPDEST PUSH1 0x0 DUP3 DUP3 SHR SWAP1 POP SWAP3 SWAP2 POP POP JUMP JUMPDEST PUSH1 0x0 PUSH3 0x33C PUSH1 0x0 NOT DUP5 PUSH1 0x8 MUL PUSH3 0x31C JUMP JUMPDEST NOT DUP1 DUP4 AND SWAP2 POP POP SWAP3 SWAP2 POP POP JUMP JUMPDEST PUSH1 0x0 PUSH3 0x357 DUP4 DUP4 PUSH3 0x329 JUMP JUMPDEST SWAP2 POP DUP3 PUSH1 0x2 MUL DUP3 OR SWAP1 POP SWAP3 SWAP2 POP POP JUMP JUMPDEST PUSH3 0x372 DUP3 PUSH3 0xED JUMP JUMPDEST PUSH8 0xFFFFFFFFFFFFFFFF DUP2 GT ISZERO PUSH3 0x38E JUMPI PUSH3 0x38D PUSH3 0xF8 JUMP JUMPDEST JUMPDEST PUSH3 0x39A DUP3 SLOAD PUSH3 0x156 JUMP JUMPDEST PUSH3 0x3A7 DUP3 DUP3 DUP6 PUSH3 0x2CC JUMP JUMPDEST PUSH1 0x0 PUSH1 0x20 SWAP1 POP PUSH1 0x1F DUP4 GT PUSH1 0x1 DUP2 EQ PUSH3 0x3DF JUMPI PUSH1 0x0 DUP5 ISZERO PUSH3 0x3CA JUMPI DUP3 DUP8 ADD MLOAD SWAP1 POP JUMPDEST PUSH3 0x3D6 DUP6 DUP3 PUSH3 0x349 JUMP JUMPDEST DUP7 SSTORE POP PUSH3 0x446 JUMP JUMPDEST PUSH1 0x1F NOT DUP5 AND PUSH3 0x3EF DUP7 PUSH3 0x18B JUMP JUMPDEST PUSH1 0x0 JUMPDEST DUP3 DUP2 LT ISZERO PUSH3 0x419 JUMPI DUP5 DUP10 ADD MLOAD DUP3 SSTORE PUSH1 0x1 DUP3 ADD SWAP2 POP PUSH1 0x20 DUP6 ADD SWAP5 POP PUSH1 0x20 DUP2 ADD SWAP1 POP PUSH3 0x3F2 JUMP JUMPDEST DUP7 DUP4 LT ISZERO PUSH3 0x439 JUMPI DUP5 DUP10 ADD MLOAD PUSH3 0x435 PUSH1 0x1F DUP10 AND DUP3 PUSH3 0x329 JUMP JUMPDEST DUP4 SSTORE POP JUMPDEST PUSH1 0x1 PUSH1 0x2 DUP9 MUL ADD DUP9 SSTORE POP POP POP JUMPDEST POP POP POP POP POP POP JUMP JUMPDEST PUSH2 0x93E DUP1 PUSH3 0x45E PUSH1 0x0 CODECOPY PUSH1 0x0 RETURN INVALID PUSH1 0x80 PUSH1 0x40 MSTORE PUSH1 0x4 CALLDATASIZE LT PUSH2 0x55 JUMPI PUSH1 0x0 CALLDATALOAD PUSH1 0xE0 SHR DUP1 PUSH4 0x1998AEEF EQ PUSH2 0x5A JUMPI DUP1 PUSH4 0x8DA5CB5B EQ PUSH2 0x64 JUMPI DUP1 PUSH4 0xA035B1FE EQ PUSH2 0x8F JUMPI DUP1 PUSH4 0xA2A12BFB EQ PUSH2 0xBA JUMPI DUP1 PUSH4 0xB7E03BEC EQ PUSH2 0xE5 JUMPI DUP1 PUSH4 0xCA00C702 EQ PUSH2 0x10E JUMPI JUMPDEST PUSH1 0x0 DUP1 REVERT JUMPDEST PUSH2 0x62 PUSH2 0x139 JUMP JUMPDEST STOP JUMPDEST CALLVALUE DUP1 ISZERO PUSH2 0x70 JUMPI PUSH1 0x0 DUP1 REVERT JUMPDEST POP PUSH2 0x79 PUSH2 0x1A4 JUMP JUMPDEST PUSH1 0x40 MLOAD PUSH2 0x86 SWAP2 SWAP1 PUSH2 0x334 JUMP JUMPDEST PUSH1 0x40 MLOAD DUP1 SWAP2 SUB SWAP1 RETURN JUMPDEST CALLVALUE DUP1 ISZERO PUSH2 0x9B JUMPI PUSH1 0x0 DUP1 REVERT JUMPDEST POP PUSH2 0xA4 PUSH2 0x1C8 JUMP JUMPDEST PUSH1 0x40 MLOAD PUSH2 0xB1 SWAP2 SWAP1 PUSH2 0x368 JUMP JUMPDEST PUSH1 0x40 MLOAD DUP1 SWAP2 SUB SWAP1 RETURN JUMPDEST CALLVALUE DUP1 ISZERO PUSH2 0xC6 JUMPI PUSH1 0x0 DUP1 REVERT JUMPDEST POP PUSH2 0xCF PUSH2 0x1CE JUMP JUMPDEST PUSH1 0x40 MLOAD PUSH2 0xDC SWAP2 SWAP1 PUSH2 0x334 JUMP JUMPDEST PUSH1 0x40 MLOAD DUP1 SWAP2 SUB SWAP1 RETURN JUMPDEST CALLVALUE DUP1 ISZERO PUSH2 0xF1 JUMPI PUSH1 0x0 DUP1 REVERT JUMPDEST POP PUSH2 0x10C PUSH1 0x4 DUP1 CALLDATASIZE SUB DUP2 ADD SWAP1 PUSH2 0x107 SWAP2 SWAP1 PUSH2 0x4DD JUMP JUMPDEST PUSH2 0x1F4 JUMP JUMPDEST STOP JUMPDEST CALLVALUE DUP1 ISZERO PUSH2 0x11A JUMPI PUSH1 0x0 DUP1 REVERT JUMPDEST POP PUSH2 0x123 PUSH2 0x261 JUMP JUMPDEST PUSH1 0x40 MLOAD PUSH2 0x130 SWAP2 SWAP1 PUSH2 0x5A5 JUMP JUMPDEST PUSH1 0x40 MLOAD DUP1 SWAP2 SUB SWAP1 RETURN JUMPDEST PUSH1 0x0 CALLVALUE SWAP1 POP PUSH1 0x64 PUSH1 0x1 SLOAD PUSH2 0x14D SWAP2 SWAP1 PUSH2 0x5F6 JUMP JUMPDEST DUP2 LT ISZERO PUSH2 0x159 JUMPI PUSH1 0x0 DUP1 REVERT JUMPDEST DUP1 PUSH1 0x1 DUP2 SWAP1 SSTORE POP CALLER PUSH1 0x2 PUSH1 0x0 PUSH2 0x100 EXP DUP2 SLOAD DUP2 PUSH20 0xFFFFFFFFFFFFFFFFFFFFFFFFFFFFFFFFFFFFFFFF MUL NOT AND SWAP1 DUP4 PUSH20 0xFFFFFFFFFFFFFFFFFFFFFFFFFFFFFFFFFFFFFFFF AND MUL OR SWAP1 SSTORE POP POP JUMP JUMPDEST PUSH1 0x0 DUP1 SLOAD SWAP1 PUSH2 0x100 EXP SWAP1 DIV PUSH20 0xFFFFFFFFFFFFFFFFFFFFFFFFFFFFFFFFFFFFFFFF AND DUP2 JUMP JUMPDEST PUSH1 0x1 SLOAD DUP2 JUMP JUMPDEST PUSH1 0x2 PUSH1 0x0 SWAP1 SLOAD SWAP1 PUSH2 0x100 EXP SWAP1 DIV PUSH20 0xFFFFFFFFFFFFFFFFFFFFFFFFFFFFFFFFFFFFFFFF AND DUP2 JUMP JUMPDEST PUSH1 0x2 PUSH1 0x0 SWAP1 SLOAD SWAP1 PUSH2 0x100 EXP SWAP1 DIV PUSH20 0xFFFFFFFFFFFFFFFFFFFFFFFFFFFFFFFFFFFFFFFF AND PUSH20 0xFFFFFFFFFFFFFFFFFFFFFFFFFFFFFFFFFFFFFFFF AND CALLER PUSH20 0xFFFFFFFFFFFFFFFFFFFFFFFFFFFFFFFFFFFFFFFF AND EQ PUSH2 0x24E JUMPI PUSH1 0x0 DUP1 REVERT JUMPDEST DUP1 PUSH1 0x3 SWAP1 DUP2 PUSH2 0x25D SWAP2 SWAP1 PUSH2 0x836 JUMP JUMPDEST POP POP JUMP JUMPDEST PUSH1 0x60 PUSH1 0x3 DUP1 SLOAD PUSH2 0x270 SWAP1 PUSH2 0x659 JUMP JUMPDEST DUP1 PUSH1 0x1F ADD PUSH1 0x20 DUP1 SWAP2 DIV MUL PUSH1 0x20 ADD PUSH1 0x40 MLOAD SWAP1 DUP2 ADD PUSH1 0x40 MSTORE DUP1 SWAP3 SWAP2 SWAP1 DUP2 DUP2 MSTORE PUSH1 0x20 ADD DUP3 DUP1 SLOAD PUSH2 0x29C SWAP1 PUSH2 0x659 JUMP JUMPDEST DUP1 ISZERO PUSH2 0x2E9 JUMPI DUP1 PUSH1 0x1F LT PUSH2 0x2BE JUMPI PUSH2 0x100 DUP1 DUP4 SLOAD DIV MUL DUP4 MSTORE SWAP2 PUSH1 0x20 ADD SWAP2 PUSH2 0x2E9 JUMP JUMPDEST DUP3 ADD SWAP2 SWAP1 PUSH1 0x0 MSTORE PUSH1 0x20 PUSH1 0x0 KECCAK256 SWAP1 JUMPDEST DUP2 SLOAD DUP2 MSTORE SWAP1 PUSH1 0x1 ADD SWAP1 PUSH1 0x20 ADD DUP1 DUP4 GT PUSH2 0x2CC JUMPI DUP3 SWAP1 SUB PUSH1 0x1F AND DUP3 ADD SWAP2 JUMPDEST POP POP POP POP POP SWAP1 POP SWAP1 JUMP JUMPDEST PUSH1 0x0 PUSH20 0xFFFFFFFFFFFFFFFFFFFFFFFFFFFFFFFFFFFFFFFF DUP3 AND SWAP1 POP SWAP2 SWAP1 POP JUMP JUMPDEST PUSH1 0x0 PUSH2 0x31E DUP3 PUSH2 0x2F3 JUMP JUMPDEST SWAP1 POP SWAP2 SWAP1 POP JUMP JUMPDEST PUSH2 0x32E DUP2 PUSH2 0x313 JUMP JUMPDEST DUP3 MSTORE POP POP JUMP JUMPDEST PUSH1 0x0 PUSH1 0x20 DUP3 ADD SWAP1 POP PUSH2 0x349 PUSH1 0x0 DUP4 ADD DUP5 PUSH2 0x325 JUMP JUMPDEST SWAP3 SWAP2 POP POP JUMP JUMPDEST PUSH1 0x0 DUP2 SWAP1 POP SWAP2 SWAP1 POP JUMP JUMPDEST PUSH2 0x362 DUP2 PUSH2 0x34F JUMP JUMPDEST DUP3 MSTORE POP POP JUMP JUMPDEST PUSH1 0x0 PUSH1 0x20 DUP3 ADD SWAP1 POP PUSH2 0x37D PUSH1 0x0 DUP4 ADD DUP5 PUSH2 0x359 JUMP JUMPDEST SWAP3 SWAP2 POP POP JUMP JUMPDEST PUSH1 0x0 PUSH1 0x40 MLOAD SWAP1 POP SWAP1 JUMP JUMPDEST PUSH1 0x0 DUP1 REVERT JUMPDEST PUSH1 0x0 DUP1 REVERT JUMPDEST PUSH1 0x0 DUP1 REVERT JUMPDEST PUSH1 0x0 DUP1 REVERT JUMPDEST PUSH1 0x0 PUSH1 0x1F NOT PUSH1 0x1F DUP4 ADD AND SWAP1 POP SWAP2 SWAP1 POP JUMP JUMPDEST PUSH32 0x4E487B7100000000000000000000000000000000000000000000000000000000 PUSH1 0x0 MSTORE PUSH1 0x41 PUSH1 0x4 MSTORE PUSH1 0x24 PUSH1 0x0 REVERT JUMPDEST PUSH2 0x3EA DUP3 PUSH2 0x3A1 JUMP JUMPDEST DUP2 ADD DUP2 DUP2 LT PUSH8 0xFFFFFFFFFFFFFFFF DUP3 GT OR ISZERO PUSH2 0x409 JUMPI PUSH2 0x408 PUSH2 0x3B2 JUMP JUMPDEST JUMPDEST DUP1 PUSH1 0x40 MSTORE POP POP POP JUMP JUMPDEST PUSH1 0x0 PUSH2 0x41C PUSH2 0x383 JUMP JUMPDEST SWAP1 POP PUSH2 0x428 DUP3 DUP3 PUSH2 0x3E1 JUMP JUMPDEST SWAP2 SWAP1 POP JUMP JUMPDEST PUSH1 0x0 PUSH8 0xFFFFFFFFFFFFFFFF DUP3 GT ISZERO PUSH2 0x448 JUMPI PUSH2 0x447 PUSH2 0x3B2 JUMP JUMPDEST JUMPDEST PUSH2 0x451 DUP3 PUSH2 0x3A1 JUMP JUMPDEST SWAP1 POP PUSH1 0x20 DUP2 ADD SWAP1 POP SWAP2 SWAP1 POP JUMP JUMPDEST DUP3 DUP2 DUP4 CALLDATACOPY PUSH1 0x0 DUP4 DUP4 ADD MSTORE POP POP POP JUMP JUMPDEST PUSH1 0x0 PUSH2 0x480 PUSH2 0x47B DUP5 PUSH2 0x42D JUMP JUMPDEST PUSH2 0x412 JUMP JUMPDEST SWAP1 POP DUP3 DUP2 MSTORE PUSH1 0x20 DUP2 ADD DUP5 DUP5 DUP5 ADD GT ISZERO PUSH2 0x49C JUMPI PUSH2 0x49B PUSH2 0x39C JUMP JUMPDEST JUMPDEST PUSH2 0x4A7 DUP5 DUP3 DUP6 PUSH2 0x45E JUMP JUMPDEST POP SWAP4 SWAP3 POP POP POP JUMP JUMPDEST PUSH1 0x0 DUP3 PUSH1 0x1F DUP4 ADD SLT PUSH2 0x4C4 JUMPI PUSH2 0x4C3 PUSH2 0x397 JUMP JUMPDEST JUMPDEST DUP2 CALLDATALOAD PUSH2 0x4D4 DUP5 DUP3 PUSH1 0x20 DUP7 ADD PUSH2 0x46D JUMP JUMPDEST SWAP2 POP POP SWAP3 SWAP2 POP POP JUMP JUMPDEST PUSH1 0x0 PUSH1 0x20 DUP3 DUP5 SUB SLT ISZERO PUSH2 0x4F3 JUMPI PUSH2 0x4F2 PUSH2 0x38D JUMP JUMPDEST JUMPDEST PUSH1 0x0 DUP3 ADD CALLDATALOAD PUSH8 0xFFFFFFFFFFFFFFFF DUP2 GT ISZERO PUSH2 0x511 JUMPI PUSH2 0x510 PUSH2 0x392 JUMP JUMPDEST JUMPDEST PUSH2 0x51D DUP5 DUP3 DUP6 ADD PUSH2 0x4AF JUMP JUMPDEST SWAP2 POP POP SWAP3 SWAP2 POP POP JUMP JUMPDEST PUSH1 0x0 DUP2 MLOAD SWAP1 POP SWAP2 SWAP1 POP JUMP JUMPDEST PUSH1 0x0 DUP3 DUP3 MSTORE PUSH1 0x20 DUP3 ADD SWAP1 POP SWAP3 SWAP2 POP POP JUMP JUMPDEST PUSH1 0x0 JUMPDEST DUP4 DUP2 LT ISZERO PUSH2 0x560 JUMPI DUP1 DUP3 ADD MLOAD DUP2 DUP5 ADD MSTORE PUSH1 0x20 DUP2 ADD SWAP1 POP PUSH2 0x545 JUMP JUMPDEST PUSH1 0x0 DUP5 DUP5 ADD MSTORE POP POP POP POP JUMP JUMPDEST PUSH1 0x0 PUSH2 0x577 DUP3 PUSH2 0x526 JUMP JUMPDEST PUSH2 0x581 DUP2 DUP6 PUSH2 0x531 JUMP JUMPDEST SWAP4 POP PUSH2 0x591 DUP2 DUP6 PUSH1 0x20 DUP7 ADD PUSH2 0x542 JUMP JUMPDEST PUSH2 0x59A DUP2 PUSH2 0x3A1 JUMP JUMPDEST DUP5 ADD SWAP2 POP POP SWAP3 SWAP2 POP POP JUMP JUMPDEST PUSH1 0x0 PUSH1 0x20 DUP3 ADD SWAP1 POP DUP2 DUP2 SUB PUSH1 0x0 DUP4 ADD MSTORE PUSH2 0x5BF DUP2 DUP5 PUSH2 0x56C JUMP JUMPDEST SWAP1 POP SWAP3 SWAP2 POP POP JUMP JUMPDEST PUSH32 0x4E487B7100000000000000000000000000000000000000000000000000000000 PUSH1 0x0 MSTORE PUSH1 0x11 PUSH1 0x4 MSTORE PUSH1 0x24 PUSH1 0x0 REVERT JUMPDEST PUSH1 0x0 PUSH2 0x601 DUP3 PUSH2 0x34F JUMP JUMPDEST SWAP2 POP PUSH2 0x60C DUP4 PUSH2 0x34F JUMP JUMPDEST SWAP3 POP DUP3 DUP3 ADD SWAP1 POP DUP1 DUP3 GT ISZERO PUSH2 0x624 JUMPI PUSH2 0x623 PUSH2 0x5C7 JUMP JUMPDEST JUMPDEST SWAP3 SWAP2 POP POP JUMP JUMPDEST PUSH32 0x4E487B7100000000000000000000000000000000000000000000000000000000 PUSH1 0x0 MSTORE PUSH1 0x22 PUSH1 0x4 MSTORE PUSH1 0x24 PUSH1 0x0 REVERT JUMPDEST PUSH1 0x0 PUSH1 0x2 DUP3 DIV SWAP1 POP PUSH1 0x1 DUP3 AND DUP1 PUSH2 0x671 JUMPI PUSH1 0x7F DUP3 AND SWAP2 POP JUMPDEST PUSH1 0x20 DUP3 LT DUP2 SUB PUSH2 0x684 JUMPI PUSH2 0x683 PUSH2 0x62A JUMP JUMPDEST JUMPDEST POP SWAP2 SWAP1 POP JUMP JUMPDEST PUSH1 0x0 DUP2 SWAP1 POP DUP2 PUSH1 0x0 MSTORE PUSH1 0x20 PUSH1 0x0 KECCAK256 SWAP1 POP SWAP2 SWAP1 POP JUMP JUMPDEST PUSH1 0x0 PUSH1 0x20 PUSH1 0x1F DUP4 ADD DIV SWAP1 POP SWAP2 SWAP1 POP JUMP JUMPDEST PUSH1 0x0 DUP3 DUP3 SHL SWAP1 POP SWAP3 SWAP2 POP POP JUMP JUMPDEST PUSH1 0x0 PUSH1 0x8 DUP4 MUL PUSH2 0x6EC PUSH32 0xFFFFFFFFFFFFFFFFFFFFFFFFFFFFFFFFFFFFFFFFFFFFFFFFFFFFFFFFFFFFFFFF DUP3 PUSH2 0x6AF JUMP JUMPDEST PUSH2 0x6F6 DUP7 DUP4 PUSH2 0x6AF JUMP JUMPDEST SWAP6 POP DUP1 NOT DUP5 AND SWAP4 POP DUP1 DUP7 AND DUP5 OR SWAP3 POP POP POP SWAP4 SWAP3 POP POP POP JUMP JUMPDEST PUSH1 0x0 DUP2 SWAP1 POP SWAP2 SWAP1 POP JUMP JUMPDEST PUSH1 0x0 PUSH2 0x733 PUSH2 0x72E PUSH2 0x729 DUP5 PUSH2 0x34F JUMP JUMPDEST PUSH2 0x70E JUMP JUMPDEST PUSH2 0x34F JUMP JUMPDEST SWAP1 POP SWAP2 SWAP1 POP JUMP JUMPDEST PUSH1 0x0 DUP2 SWAP1 POP SWAP2 SWAP1 POP JUMP JUMPDEST PUSH2 0x74D DUP4 PUSH2 0x718 JUMP JUMPDEST PUSH2 0x761 PUSH2 0x759 DUP3 PUSH2 0x73A JUMP JUMPDEST DUP5 DUP5 SLOAD PUSH2 0x6BC JUMP JUMPDEST DUP3 SSTORE POP POP POP POP JUMP JUMPDEST PUSH1 0x0 SWAP1 JUMP JUMPDEST PUSH2 0x776 PUSH2 0x769 JUMP JUMPDEST PUSH2 0x781 DUP2 DUP5 DUP5 PUSH2 0x744 JUMP JUMPDEST POP POP POP JUMP JUMPDEST JUMPDEST DUP2 DUP2 LT ISZERO PUSH2 0x7A5 JUMPI PUSH2 0x79A PUSH1 0x0 DUP3 PUSH2 0x76E JUMP JUMPDEST PUSH1 0x1 DUP2 ADD SWAP1 POP PUSH2 0x787 JUMP JUMPDEST POP POP JUMP JUMPDEST PUSH1 0x1F DUP3 GT ISZERO PUSH2 0x7EA JUMPI PUSH2 0x7BB DUP2 PUSH2 0x68A JUMP JUMPDEST PUSH2 0x7C4 DUP5 PUSH2 0x69F JUMP JUMPDEST DUP2 ADD PUSH1 0x20 DUP6 LT ISZERO PUSH2 0x7D3 JUMPI DUP2 SWAP1 POP JUMPDEST PUSH2 0x7E7 PUSH2 0x7DF DUP6 PUSH2 0x69F JUMP JUMPDEST DUP4 ADD DUP3 PUSH2 0x786 JUMP JUMPDEST POP POP JUMPDEST POP POP POP JUMP JUMPDEST PUSH1 0x0 DUP3 DUP3 SHR SWAP1 POP SWAP3 SWAP2 POP POP JUMP JUMPDEST PUSH1 0x0 PUSH2 0x80D PUSH1 0x0 NOT DUP5 PUSH1 0x8 MUL PUSH2 0x7EF JUMP JUMPDEST NOT DUP1 DUP4 AND SWAP2 POP POP SWAP3 SWAP2 POP POP JUMP JUMPDEST PUSH1 0x0 PUSH2 0x826 DUP4 DUP4 PUSH2 0x7FC JUMP JUMPDEST SWAP2 POP DUP3 PUSH1 0x2 MUL DUP3 OR SWAP1 POP SWAP3 SWAP2 POP POP JUMP JUMPDEST PUSH2 0x83F DUP3 PUSH2 0x526 JUMP JUMPDEST PUSH8 0xFFFFFFFFFFFFFFFF DUP2 GT ISZERO PUSH2 0x858 JUMPI PUSH2 0x857 PUSH2 0x3B2 JUMP JUMPDEST JUMPDEST PUSH2 0x862 DUP3 SLOAD PUSH2 0x659 JUMP JUMPDEST PUSH2 0x86D DUP3 DUP3 DUP6 PUSH2 0x7A9 JUMP JUMPDEST PUSH1 0x0 PUSH1 0x20 SWAP1 POP PUSH1 0x1F DUP4 GT PUSH1 0x1 DUP2 EQ PUSH2 0x8A0 JUMPI PUSH1 0x0 DUP5 ISZERO PUSH2 0x88E JUMPI DUP3 DUP8 ADD MLOAD SWAP1 POP JUMPDEST PUSH2 0x898 DUP6 DUP3 PUSH2 0x81A JUMP JUMPDEST DUP7 SSTORE POP PUSH2 0x900 JUMP JUMPDEST PUSH1 0x1F NOT DUP5 AND PUSH2 0x8AE DUP7 PUSH2 0x68A JUMP JUMPDEST PUSH1 0x0 JUMPDEST DUP3 DUP2 LT ISZERO PUSH2 0x8D6 JUMPI DUP5 DUP10 ADD MLOAD DUP3 SSTORE PUSH1 0x1 DUP3 ADD SWAP2 POP PUSH1 0x20 DUP6 ADD SWAP5 POP PUSH1 0x20 DUP2 ADD SWAP1 POP PUSH2 0x8B1 JUMP JUMPDEST DUP7 DUP4 LT ISZERO PUSH2 0x8F3 JUMPI DUP5 DUP10 ADD MLOAD PUSH2 0x8EF PUSH1 0x1F DUP10 AND DUP3 PUSH2 0x7FC JUMP JUMPDEST DUP4 SSTORE POP JUMPDEST PUSH1 0x1 PUSH1 0x2 DUP9 MUL ADD DUP9 SSTORE POP POP POP JUMPDEST POP POP POP POP POP POP JUMP INVALID LOG2 PUSH5 0x6970667358 0x22 SLT KECCAK256 PUSH13 0x6BBA18BE7D1551BCDC52AF1A9E 0x25 0xF8 NUMBER 0xBA PUSH30 0x6C7A22766A519381F3B36EC29764736F6C63430008110033516D4E566431 GASLIMIT PUSH20 0x656B655848546F4C7562444E6A524C7559426147 JUMP DIFFICULTY JUMPI NUMBER MLOAD CALLER ORIGIN PUSH17 0x377667503642624A4C4400000000000000 "},"methodIdentifiers":{"bid()":"1998aeef","getCid()":"ca00c702","owner()":"8da5cb5b","price()":"a035b1fe","setCid(string)":"b7e03bec","tempOwner()":"a2a12bfb"}}}}}